{
  "_format": "hh-sol-artifact-1",
  "contractName": "TargetToken",
  "sourceName": "contracts/TargetToken.sol",
  "abi": [
    {
      "inputs": [
        {
          "internalType": "uint256",
          "name": "initialSupply",
          "type": "uint256"
        },
        {
          "internalType": "contract MinimalForwarder",
          "name": "forwarder",
          "type": "address"
        }
      ],
      "stateMutability": "nonpayable",
      "type": "constructor"
    },
    {
      "anonymous": false,
      "inputs": [
        {
          "indexed": true,
          "internalType": "address",
          "name": "owner",
          "type": "address"
        },
        {
          "indexed": true,
          "internalType": "address",
          "name": "spender",
          "type": "address"
        },
        {
          "indexed": false,
          "internalType": "uint256",
          "name": "value",
          "type": "uint256"
        }
      ],
      "name": "Approval",
      "type": "event"
    },
    {
      "anonymous": false,
      "inputs": [
        {
          "indexed": true,
          "internalType": "address",
          "name": "from",
          "type": "address"
        },
        {
          "indexed": true,
          "internalType": "address",
          "name": "to",
          "type": "address"
        },
        {
          "indexed": false,
          "internalType": "uint256",
          "name": "value",
          "type": "uint256"
        }
      ],
      "name": "Transfer",
      "type": "event"
    },
    {
      "inputs": [
        {
          "internalType": "address",
          "name": "owner",
          "type": "address"
        },
        {
          "internalType": "address",
          "name": "spender",
          "type": "address"
        }
      ],
      "name": "allowance",
      "outputs": [
        {
          "internalType": "uint256",
          "name": "",
          "type": "uint256"
        }
      ],
      "stateMutability": "view",
      "type": "function"
    },
    {
      "inputs": [
        {
          "internalType": "address",
          "name": "spender",
          "type": "address"
        },
        {
          "internalType": "uint256",
          "name": "amount",
          "type": "uint256"
        }
      ],
      "name": "approve",
      "outputs": [
        {
          "internalType": "bool",
          "name": "",
          "type": "bool"
        }
      ],
      "stateMutability": "nonpayable",
      "type": "function"
    },
    {
      "inputs": [
        {
          "internalType": "address",
          "name": "account",
          "type": "address"
        }
      ],
      "name": "balanceOf",
      "outputs": [
        {
          "internalType": "uint256",
          "name": "",
          "type": "uint256"
        }
      ],
      "stateMutability": "view",
      "type": "function"
    },
    {
      "inputs": [],
      "name": "decimals",
      "outputs": [
        {
          "internalType": "uint8",
          "name": "",
          "type": "uint8"
        }
      ],
      "stateMutability": "view",
      "type": "function"
    },
    {
      "inputs": [
        {
          "internalType": "address",
          "name": "spender",
          "type": "address"
        },
        {
          "internalType": "uint256",
          "name": "subtractedValue",
          "type": "uint256"
        }
      ],
      "name": "decreaseAllowance",
      "outputs": [
        {
          "internalType": "bool",
          "name": "",
          "type": "bool"
        }
      ],
      "stateMutability": "nonpayable",
      "type": "function"
    },
    {
      "inputs": [
        {
          "internalType": "address",
          "name": "spender",
          "type": "address"
        },
        {
          "internalType": "uint256",
          "name": "addedValue",
          "type": "uint256"
        }
      ],
      "name": "increaseAllowance",
      "outputs": [
        {
          "internalType": "bool",
          "name": "",
          "type": "bool"
        }
      ],
      "stateMutability": "nonpayable",
      "type": "function"
    },
    {
      "inputs": [
        {
          "internalType": "address",
          "name": "forwarder",
          "type": "address"
        }
      ],
      "name": "isTrustedForwarder",
      "outputs": [
        {
          "internalType": "bool",
          "name": "",
          "type": "bool"
        }
      ],
      "stateMutability": "view",
      "type": "function"
    },
    {
      "inputs": [],
      "name": "name",
      "outputs": [
        {
          "internalType": "string",
          "name": "",
          "type": "string"
        }
      ],
      "stateMutability": "view",
      "type": "function"
    },
    {
      "inputs": [],
      "name": "symbol",
      "outputs": [
        {
          "internalType": "string",
          "name": "",
          "type": "string"
        }
      ],
      "stateMutability": "view",
      "type": "function"
    },
    {
      "inputs": [],
      "name": "totalSupply",
      "outputs": [
        {
          "internalType": "uint256",
          "name": "",
          "type": "uint256"
        }
      ],
      "stateMutability": "view",
      "type": "function"
    },
    {
      "inputs": [
        {
          "internalType": "address",
          "name": "recipient",
          "type": "address"
        },
        {
          "internalType": "uint256",
          "name": "amount",
          "type": "uint256"
        }
      ],
      "name": "transfer",
      "outputs": [
        {
          "internalType": "bool",
          "name": "",
          "type": "bool"
        }
      ],
      "stateMutability": "nonpayable",
      "type": "function"
    },
    {
      "inputs": [
        {
          "internalType": "address",
          "name": "sender",
          "type": "address"
        },
        {
          "internalType": "address",
          "name": "recipient",
          "type": "address"
        },
        {
          "internalType": "uint256",
          "name": "amount",
          "type": "uint256"
        }
      ],
      "name": "transferFrom",
      "outputs": [
        {
          "internalType": "bool",
          "name": "",
          "type": "bool"
        }
      ],
      "stateMutability": "nonpayable",
      "type": "function"
    }
  ],
  "bytecode": "0x60806040523480156200001157600080fd5b5060405162001a1a38038062001a1a833981810160405281019062000037919062000395565b6040518060400160405280600b81526020017f546172676574546f6b656e0000000000000000000000000000000000000000008152506040518060400160405280600381526020017f544754000000000000000000000000000000000000000000000000000000000081525082806000806101000a81548173ffffffffffffffffffffffffffffffffffffffff021916908373ffffffffffffffffffffffffffffffffffffffff160217905550508160049080519060200190620000fd929190620002b7565b50806005908051906020019062000116929190620002b7565b5050506200012b33836200013360201b60201c565b5050620005f0565b600073ffffffffffffffffffffffffffffffffffffffff168273ffffffffffffffffffffffffffffffffffffffff161415620001a6576040517f08c379a00000000000000000000000000000000000000000000000000000000081526004016200019d9062000429565b60405180910390fd5b620001ba60008383620002ad60201b60201c565b8060036000828254620001ce919062000479565b9250508190555080600160008473ffffffffffffffffffffffffffffffffffffffff1673ffffffffffffffffffffffffffffffffffffffff168152602001908152602001600020600082825462000226919062000479565b925050819055508173ffffffffffffffffffffffffffffffffffffffff16600073ffffffffffffffffffffffffffffffffffffffff167fddf252ad1be2c89b69c2b068fc378daa952ba7f163c4a11628f55a4df523b3ef836040516200028d91906200044b565b60405180910390a3620002a960008383620002b260201b60201c565b5050565b505050565b505050565b828054620002c59062000528565b90600052602060002090601f016020900481019282620002e9576000855562000335565b82601f106200030457805160ff191683800117855562000335565b8280016001018555821562000335579182015b828111156200033457825182559160200191906001019062000317565b5b50905062000344919062000348565b5090565b5b808211156200036357600081600090555060010162000349565b5090565b6000815190506200037881620005bc565b92915050565b6000815190506200038f81620005d6565b92915050565b60008060408385031215620003a957600080fd5b6000620003b9858286016200037e565b9250506020620003cc8582860162000367565b9150509250929050565b6000620003e5601f8362000468565b91507f45524332303a206d696e7420746f20746865207a65726f2061646472657373006000830152602082019050919050565b62000423816200051e565b82525050565b600060208201905081810360008301526200044481620003d6565b9050919050565b600060208201905062000462600083018462000418565b92915050565b600082825260208201905092915050565b600062000486826200051e565b915062000493836200051e565b9250827fffffffffffffffffffffffffffffffffffffffffffffffffffffffffffffffff03821115620004cb57620004ca6200055e565b5b828201905092915050565b6000620004e382620004fe565b9050919050565b6000620004f782620004d6565b9050919050565b600073ffffffffffffffffffffffffffffffffffffffff82169050919050565b6000819050919050565b600060028204905060018216806200054157607f821691505b602082108114156200055857620005576200058d565b5b50919050565b7f4e487b7100000000000000000000000000000000000000000000000000000000600052601160045260246000fd5b7f4e487b7100000000000000000000000000000000000000000000000000000000600052602260045260246000fd5b620005c781620004ea565b8114620005d357600080fd5b50565b620005e1816200051e565b8114620005ed57600080fd5b50565b61141a80620006006000396000f3fe608060405234801561001057600080fd5b50600436106100b45760003560e01c8063572b6c0511610071578063572b6c05146101a357806370a08231146101d357806395d89b4114610203578063a457c2d714610221578063a9059cbb14610251578063dd62ed3e14610281576100b4565b806306fdde03146100b9578063095ea7b3146100d757806318160ddd1461010757806323b872dd14610125578063313ce567146101555780633950935114610173575b600080fd5b6100c16102b1565b6040516100ce91906110e3565b60405180910390f35b6100f160048036038101906100ec9190610d5c565b610343565b6040516100fe91906110c8565b60405180910390f35b61010f610361565b60405161011c91906111e5565b60405180910390f35b61013f600480360381019061013a9190610d0d565b61036b565b60405161014c91906110c8565b60405180910390f35b61015d610463565b60405161016a9190611200565b60405180910390f35b61018d60048036038101906101889190610d5c565b61046c565b60405161019a91906110c8565b60405180910390f35b6101bd60048036038101906101b89190610ca8565b610518565b6040516101ca91906110c8565b60405180910390f35b6101ed60048036038101906101e89190610ca8565b610571565b6040516101fa91906111e5565b60405180910390f35b61020b6105ba565b60405161021891906110e3565b60405180910390f35b61023b60048036038101906102369190610d5c565b61064c565b60405161024891906110c8565b60405180910390f35b61026b60048036038101906102669190610d5c565b610737565b60405161027891906110c8565b60405180910390f35b61029b60048036038101906102969190610cd1565b610755565b6040516102a891906111e5565b60405180910390f35b6060600480546102c090611315565b80601f01602080910402602001604051908101604052809291908181526020018280546102ec90611315565b80156103395780601f1061030e57610100808354040283529160200191610339565b820191906000526020600020905b81548152906001019060200180831161031c57829003601f168201915b5050505050905090565b60006103576103506107dc565b84846107eb565b6001905092915050565b6000600354905090565b60006103788484846109b6565b6000600260008673ffffffffffffffffffffffffffffffffffffffff1673ffffffffffffffffffffffffffffffffffffffff16815260200190815260200160002060006103c36107dc565b73ffffffffffffffffffffffffffffffffffffffff1673ffffffffffffffffffffffffffffffffffffffff16815260200190815260200160002054905082811015610443576040517f08c379a000000000000000000000000000000000000000000000000000000000815260040161043a90611165565b60405180910390fd5b6104578561044f6107dc565b8584036107eb565b60019150509392505050565b60006012905090565b600061050e6104796107dc565b8484600260006104876107dc565b73ffffffffffffffffffffffffffffffffffffffff1673ffffffffffffffffffffffffffffffffffffffff16815260200190815260200160002060008873ffffffffffffffffffffffffffffffffffffffff1673ffffffffffffffffffffffffffffffffffffffff168152602001908152602001600020546105099190611237565b6107eb565b6001905092915050565b60008060009054906101000a900473ffffffffffffffffffffffffffffffffffffffff1673ffffffffffffffffffffffffffffffffffffffff168273ffffffffffffffffffffffffffffffffffffffff16149050919050565b6000600160008373ffffffffffffffffffffffffffffffffffffffff1673ffffffffffffffffffffffffffffffffffffffff168152602001908152602001600020549050919050565b6060600580546105c990611315565b80601f01602080910402602001604051908101604052809291908181526020018280546105f590611315565b80156106425780601f1061061757610100808354040283529160200191610642565b820191906000526020600020905b81548152906001019060200180831161062557829003601f168201915b5050505050905090565b6000806002600061065b6107dc565b73ffffffffffffffffffffffffffffffffffffffff1673ffffffffffffffffffffffffffffffffffffffff16815260200190815260200160002060008573ffffffffffffffffffffffffffffffffffffffff1673ffffffffffffffffffffffffffffffffffffffff16815260200190815260200160002054905082811015610718576040517f08c379a000000000000000000000000000000000000000000000000000000000815260040161070f906111c5565b60405180910390fd5b61072c6107236107dc565b858584036107eb565b600191505092915050565b600061074b6107446107dc565b84846109b6565b6001905092915050565b6000600260008473ffffffffffffffffffffffffffffffffffffffff1673ffffffffffffffffffffffffffffffffffffffff16815260200190815260200160002060008373ffffffffffffffffffffffffffffffffffffffff1673ffffffffffffffffffffffffffffffffffffffff16815260200190815260200160002054905092915050565b60006107e6610c3a565b905090565b600073ffffffffffffffffffffffffffffffffffffffff168373ffffffffffffffffffffffffffffffffffffffff16141561085b576040517f08c379a0000000000000000000000000000000000000000000000000000000008152600401610852906111a5565b60405180910390fd5b600073ffffffffffffffffffffffffffffffffffffffff168273ffffffffffffffffffffffffffffffffffffffff1614156108cb576040517f08c379a00000000000000000000000000000000000000000000000000000000081526004016108c290611125565b60405180910390fd5b80600260008573ffffffffffffffffffffffffffffffffffffffff1673ffffffffffffffffffffffffffffffffffffffff16815260200190815260200160002060008473ffffffffffffffffffffffffffffffffffffffff1673ffffffffffffffffffffffffffffffffffffffff168152602001908152602001600020819055508173ffffffffffffffffffffffffffffffffffffffff168373ffffffffffffffffffffffffffffffffffffffff167f8c5be1e5ebec7d5bd14f71427d1e84f3dd0314c0f7b2291e5b200ac8c7c3b925836040516109a991906111e5565b60405180910390a3505050565b600073ffffffffffffffffffffffffffffffffffffffff168373ffffffffffffffffffffffffffffffffffffffff161415610a26576040517f08c379a0000000000000000000000000000000000000000000000000000000008152600401610a1d90611185565b60405180910390fd5b600073ffffffffffffffffffffffffffffffffffffffff168273ffffffffffffffffffffffffffffffffffffffff161415610a96576040517f08c379a0000000000000000000000000000000000000000000000000000000008152600401610a8d90611105565b60405180910390fd5b610aa1838383610c6c565b6000600160008573ffffffffffffffffffffffffffffffffffffffff1673ffffffffffffffffffffffffffffffffffffffff16815260200190815260200160002054905081811015610b28576040517f08c379a0000000000000000000000000000000000000000000000000000000008152600401610b1f90611145565b60405180910390fd5b818103600160008673ffffffffffffffffffffffffffffffffffffffff1673ffffffffffffffffffffffffffffffffffffffff1681526020019081526020016000208190555081600160008573ffffffffffffffffffffffffffffffffffffffff1673ffffffffffffffffffffffffffffffffffffffff1681526020019081526020016000206000828254610bbd9190611237565b925050819055508273ffffffffffffffffffffffffffffffffffffffff168473ffffffffffffffffffffffffffffffffffffffff167fddf252ad1be2c89b69c2b068fc378daa952ba7f163c4a11628f55a4df523b3ef84604051610c2191906111e5565b60405180910390a3610c34848484610c71565b50505050565b6000610c4533610518565b15610c5957601436033560601c9050610c68565b610c61610c76565b9050610c69565b5b90565b505050565b505050565b600033905090565b600081359050610c8d816113b6565b92915050565b600081359050610ca2816113cd565b92915050565b600060208284031215610cba57600080fd5b6000610cc884828501610c7e565b91505092915050565b60008060408385031215610ce457600080fd5b6000610cf285828601610c7e565b9250506020610d0385828601610c7e565b9150509250929050565b600080600060608486031215610d2257600080fd5b6000610d3086828701610c7e565b9350506020610d4186828701610c7e565b9250506040610d5286828701610c93565b9150509250925092565b60008060408385031215610d6f57600080fd5b6000610d7d85828601610c7e565b9250506020610d8e85828601610c93565b9150509250929050565b610da18161129f565b82525050565b6000610db28261121b565b610dbc8185611226565b9350610dcc8185602086016112e2565b610dd5816113a5565b840191505092915050565b6000610ded602383611226565b91507f45524332303a207472616e7366657220746f20746865207a65726f206164647260008301527f65737300000000000000000000000000000000000000000000000000000000006020830152604082019050919050565b6000610e53602283611226565b91507f45524332303a20617070726f766520746f20746865207a65726f20616464726560008301527f73730000000000000000000000000000000000000000000000000000000000006020830152604082019050919050565b6000610eb9602683611226565b91507f45524332303a207472616e7366657220616d6f756e742065786365656473206260008301527f616c616e636500000000000000000000000000000000000000000000000000006020830152604082019050919050565b6000610f1f602883611226565b91507f45524332303a207472616e7366657220616d6f756e742065786365656473206160008301527f6c6c6f77616e63650000000000000000000000000000000000000000000000006020830152604082019050919050565b6000610f85602583611226565b91507f45524332303a207472616e736665722066726f6d20746865207a65726f20616460008301527f64726573730000000000000000000000000000000000000000000000000000006020830152604082019050919050565b6000610feb602483611226565b91507f45524332303a20617070726f76652066726f6d20746865207a65726f2061646460008301527f72657373000000000000000000000000000000000000000000000000000000006020830152604082019050919050565b6000611051602583611226565b91507f45524332303a2064656372656173656420616c6c6f77616e63652062656c6f7760008301527f207a65726f0000000000000000000000000000000000000000000000000000006020830152604082019050919050565b6110b3816112cb565b82525050565b6110c2816112d5565b82525050565b60006020820190506110dd6000830184610d98565b92915050565b600060208201905081810360008301526110fd8184610da7565b905092915050565b6000602082019050818103600083015261111e81610de0565b9050919050565b6000602082019050818103600083015261113e81610e46565b9050919050565b6000602082019050818103600083015261115e81610eac565b9050919050565b6000602082019050818103600083015261117e81610f12565b9050919050565b6000602082019050818103600083015261119e81610f78565b9050919050565b600060208201905081810360008301526111be81610fde565b9050919050565b600060208201905081810360008301526111de81611044565b9050919050565b60006020820190506111fa60008301846110aa565b92915050565b600060208201905061121560008301846110b9565b92915050565b600081519050919050565b600082825260208201905092915050565b6000611242826112cb565b915061124d836112cb565b9250827fffffffffffffffffffffffffffffffffffffffffffffffffffffffffffffffff0382111561128257611281611347565b5b828201905092915050565b6000611298826112ab565b9050919050565b60008115159050919050565b600073ffffffffffffffffffffffffffffffffffffffff82169050919050565b6000819050919050565b600060ff82169050919050565b60005b838110156113005780820151818401526020810190506112e5565b8381111561130f576000848401525b50505050565b6000600282049050600182168061132d57607f821691505b6020821081141561134157611340611376565b5b50919050565b7f4e487b7100000000000000000000000000000000000000000000000000000000600052601160045260246000fd5b7f4e487b7100000000000000000000000000000000000000000000000000000000600052602260045260246000fd5b6000601f19601f8301169050919050565b6113bf8161128d565b81146113ca57600080fd5b50565b6113d6816112cb565b81146113e157600080fd5b5056fea264697066735822122072e44a94d07d1c0fabeab685e5b157f293b671e9a5c810fbdd364258ccc640bd64736f6c63430008000033",
  "linkReferences": {},
  "deployedLinkReferences": {}
}